{
  "contractName": "ItemManager",
  "abi": [
    {
      "anonymous": false,
      "inputs": [
        {
          "indexed": true,
          "internalType": "address",
          "name": "previousOwner",
          "type": "address"
        },
        {
          "indexed": true,
          "internalType": "address",
          "name": "newOwner",
          "type": "address"
        }
      ],
      "name": "OwnershipTransferred",
      "type": "event"
    },
    {
      "anonymous": false,
      "inputs": [
        {
          "indexed": false,
          "internalType": "uint256",
          "name": "_index",
          "type": "uint256"
        },
        {
          "indexed": false,
          "internalType": "uint256",
          "name": "_status",
          "type": "uint256"
        },
        {
          "indexed": false,
          "internalType": "address",
          "name": "_address",
          "type": "address"
        }
      ],
      "name": "SupplyChainEvent",
      "type": "event"
    },
    {
      "inputs": [
        {
          "internalType": "uint256",
          "name": "",
          "type": "uint256"
        }
      ],
      "name": "items",
      "outputs": [
        {
          "internalType": "contract Item",
          "name": "item",
          "type": "address"
        },
        {
          "internalType": "string",
          "name": "identifier",
          "type": "string"
        },
        {
          "internalType": "enum ItemManager.SupplyChainStatuses",
          "name": "status",
          "type": "uint8"
        }
      ],
      "stateMutability": "view",
      "type": "function",
      "constant": true
    },
    {
      "inputs": [],
      "name": "owner",
      "outputs": [
        {
          "internalType": "address",
          "name": "",
          "type": "address"
        }
      ],
      "stateMutability": "view",
      "type": "function",
      "constant": true
    },
    {
      "inputs": [],
      "name": "renounceOwnership",
      "outputs": [],
      "stateMutability": "nonpayable",
      "type": "function"
    },
    {
      "inputs": [
        {
          "internalType": "address",
          "name": "newOwner",
          "type": "address"
        }
      ],
      "name": "transferOwnership",
      "outputs": [],
      "stateMutability": "nonpayable",
      "type": "function"
    },
    {
      "inputs": [
        {
          "internalType": "string",
          "name": "_identifier",
          "type": "string"
        },
        {
          "internalType": "uint256",
          "name": "_priceInWei",
          "type": "uint256"
        }
      ],
      "name": "createItem",
      "outputs": [],
      "stateMutability": "nonpayable",
      "type": "function"
    },
    {
      "inputs": [
        {
          "internalType": "uint256",
          "name": "_index",
          "type": "uint256"
        }
      ],
      "name": "triggerPayment",
      "outputs": [],
      "stateMutability": "payable",
      "type": "function",
      "payable": true
    },
    {
      "inputs": [
        {
          "internalType": "uint256",
          "name": "_index",
          "type": "uint256"
        }
      ],
      "name": "triggerDelivery",
      "outputs": [],
      "stateMutability": "nonpayable",
      "type": "function"
    }
  ],
  "bytecode": "0x608060405234801561001057600080fd5b5060006100216100c460201b60201c565b9050806000806101000a81548173ffffffffffffffffffffffffffffffffffffffff021916908373ffffffffffffffffffffffffffffffffffffffff1602179055508073ffffffffffffffffffffffffffffffffffffffff16600073ffffffffffffffffffffffffffffffffffffffff167f8be0079c531659141344cd1fd0a4f28419497f9722a3daafe3b4186f6b6457e060405160405180910390a3506100cc565b600033905090565b6115de806100db6000396000f3fe6080604052600436106100705760003560e01c80638da5cb5b1161004e5780638da5cb5b1461018c578063bfb231d2146101cd578063cd31831e146102b0578063f2fde38b146102eb57610070565b8063715018a614610075578063800fb83f1461008c5780638c551742146100ba575b600080fd5b34801561008157600080fd5b5061008a61033c565b005b6100b8600480360360208110156100a257600080fd5b81019080803590602001909291905050506104c2565b005b3480156100c657600080fd5b5061018a600480360360408110156100dd57600080fd5b81019080803590602001906401000000008111156100fa57600080fd5b82018360208201111561010c57600080fd5b8035906020019184600183028401116401000000008311171561012e57600080fd5b91908080601f016020809104026020016040519081016040528093929190818152602001838380828437600081840152601f19601f820116905080830192505050505050509192919290803590602001909291905050506107cf565b005b34801561019857600080fd5b506101a1610a5b565b604051808273ffffffffffffffffffffffffffffffffffffffff16815260200191505060405180910390f35b3480156101d957600080fd5b50610206600480360360208110156101f057600080fd5b8101908080359060200190929190505050610a84565b604051808473ffffffffffffffffffffffffffffffffffffffff1681526020018060200183600281111561023657fe5b8152602001828103825284818151815260200191508051906020019080838360005b83811015610273578082015181840152602081019050610258565b50505050905090810190601f1680156102a05780820380516001836020036101000a031916815260200191505b5094505050505060405180910390f35b3480156102bc57600080fd5b506102e9600480360360208110156102d357600080fd5b8101908080359060200190929190505050610b73565b005b3480156102f757600080fd5b5061033a6004803603602081101561030e57600080fd5b81019080803573ffffffffffffffffffffffffffffffffffffffff169060200190929190505050610dc9565b005b610344610fd4565b73ffffffffffffffffffffffffffffffffffffffff1660008054906101000a900473ffffffffffffffffffffffffffffffffffffffff1673ffffffffffffffffffffffffffffffffffffffff1614610404576040517f08c379a00000000000000000000000000000000000000000000000000000000081526004018080602001828103825260208152602001807f4f776e61626c653a2063616c6c6572206973206e6f7420746865206f776e657281525060200191505060405180910390fd5b600073ffffffffffffffffffffffffffffffffffffffff1660008054906101000a900473ffffffffffffffffffffffffffffffffffffffff1673ffffffffffffffffffffffffffffffffffffffff167f8be0079c531659141344cd1fd0a4f28419497f9722a3daafe3b4186f6b6457e060405160405180910390a360008060006101000a81548173ffffffffffffffffffffffffffffffffffffffff021916908373ffffffffffffffffffffffffffffffffffffffff160217905550565b60006001600083815260200190815260200160002060000160009054906101000a900473ffffffffffffffffffffffffffffffffffffffff1690503373ffffffffffffffffffffffffffffffffffffffff168173ffffffffffffffffffffffffffffffffffffffff1614610581576040517f08c379a000000000000000000000000000000000000000000000000000000000815260040180806020018281038252602b81526020018061155b602b913960400191505060405180910390fd5b348173ffffffffffffffffffffffffffffffffffffffff16633c8da5886040518163ffffffff1660e01b815260040160206040518083038186803b1580156105c857600080fd5b505afa1580156105dc573d6000803e3d6000fd5b505050506040513d60208110156105f257600080fd5b81019080805190602001909291905050501115610677576040517f08c379a00000000000000000000000000000000000000000000000000000000081526004018080602001828103825260168152602001807f4974656d206973206e6f742066756c6c7920706169640000000000000000000081525060200191505060405180910390fd5b6000600281111561068457fe5b6001600084815260200190815260200160002060020160009054906101000a900460ff1660028111156106b357fe5b14610709576040517f08c379a00000000000000000000000000000000000000000000000000000000081526004018080602001828103825260238152602001806115866023913960400191505060405180910390fd5b600180600084815260200190815260200160002060020160006101000a81548160ff0219169083600281111561073b57fe5b02179055507f138e90f9778d98aa08f16bae1b8a7f8636434d25889a5ab718c43a45033c319c826001600085815260200190815260200160002060020160009054906101000a900460ff16600281111561079157fe5b83604051808481526020018381526020018273ffffffffffffffffffffffffffffffffffffffff168152602001935050505060405180910390a15050565b6107d7610fd4565b73ffffffffffffffffffffffffffffffffffffffff1660008054906101000a900473ffffffffffffffffffffffffffffffffffffffff1673ffffffffffffffffffffffffffffffffffffffff1614610897576040517f08c379a00000000000000000000000000000000000000000000000000000000081526004018080602001828103825260208152602001807f4f776e61626c653a2063616c6c6572206973206e6f7420746865206f776e657281525060200191505060405180910390fd5b600030826002546040516108aa90610fdc565b808473ffffffffffffffffffffffffffffffffffffffff1681526020018381526020018281526020019350505050604051809103906000f0801580156108f4573d6000803e3d6000fd5b5090508060016000600254815260200190815260200160002060000160006101000a81548173ffffffffffffffffffffffffffffffffffffffff021916908373ffffffffffffffffffffffffffffffffffffffff16021790555082600160006002548152602001908152602001600020600101908051906020019061097a929190610fe9565b50600060016000600254815260200190815260200160002060020160006101000a81548160ff021916908360028111156109b057fe5b02179055507f138e90f9778d98aa08f16bae1b8a7f8636434d25889a5ab718c43a45033c319c60025460016000600254815260200190815260200160002060020160009054906101000a900460ff166002811115610a0a57fe5b83604051808481526020018381526020018273ffffffffffffffffffffffffffffffffffffffff168152602001935050505060405180910390a1600260008154809291906001019190505550505050565b60008060009054906101000a900473ffffffffffffffffffffffffffffffffffffffff16905090565b60016020528060005260406000206000915090508060000160009054906101000a900473ffffffffffffffffffffffffffffffffffffffff1690806001018054600181600116156101000203166002900480601f016020809104026020016040519081016040528092919081815260200182805460018160011615610100020316600290048015610b565780601f10610b2b57610100808354040283529160200191610b56565b820191906000526020600020905b815481529060010190602001808311610b3957829003601f168201915b5050505050908060020160009054906101000a900460ff16905083565b610b7b610fd4565b73ffffffffffffffffffffffffffffffffffffffff1660008054906101000a900473ffffffffffffffffffffffffffffffffffffffff1673ffffffffffffffffffffffffffffffffffffffff1614610c3b576040517f08c379a00000000000000000000000000000000000000000000000000000000081526004018080602001828103825260208152602001807f4f776e61626c653a2063616c6c6572206973206e6f7420746865206f776e657281525060200191505060405180910390fd5b60016002811115610c4857fe5b6001600083815260200190815260200160002060020160009054906101000a900460ff166002811115610c7757fe5b14610ccd576040517f08c379a00000000000000000000000000000000000000000000000000000000081526004018080602001828103825260238152602001806115866023913960400191505060405180910390fd5b60026001600083815260200190815260200160002060020160006101000a81548160ff02191690836002811115610d0057fe5b02179055507f138e90f9778d98aa08f16bae1b8a7f8636434d25889a5ab718c43a45033c319c816001600084815260200190815260200160002060020160009054906101000a900460ff166002811115610d5657fe5b6001600085815260200190815260200160002060000160009054906101000a900473ffffffffffffffffffffffffffffffffffffffff16604051808481526020018381526020018273ffffffffffffffffffffffffffffffffffffffff168152602001935050505060405180910390a150565b610dd1610fd4565b73ffffffffffffffffffffffffffffffffffffffff1660008054906101000a900473ffffffffffffffffffffffffffffffffffffffff1673ffffffffffffffffffffffffffffffffffffffff1614610e91576040517f08c379a00000000000000000000000000000000000000000000000000000000081526004018080602001828103825260208152602001807f4f776e61626c653a2063616c6c6572206973206e6f7420746865206f776e657281525060200191505060405180910390fd5b600073ffffffffffffffffffffffffffffffffffffffff168173ffffffffffffffffffffffffffffffffffffffff161415610f17576040517f08c379a00000000000000000000000000000000000000000000000000000000081526004018080602001828103825260268152602001806115356026913960400191505060405180910390fd5b8073ffffffffffffffffffffffffffffffffffffffff1660008054906101000a900473ffffffffffffffffffffffffffffffffffffffff1673ffffffffffffffffffffffffffffffffffffffff167f8be0079c531659141344cd1fd0a4f28419497f9722a3daafe3b4186f6b6457e060405160405180910390a3806000806101000a81548173ffffffffffffffffffffffffffffffffffffffff021916908373ffffffffffffffffffffffffffffffffffffffff16021790555050565b600033905090565b6104ae8061108783390190565b828054600181600116156101000203166002900490600052602060002090601f016020900481019282601f1061102a57805160ff1916838001178555611058565b82800160010185558215611058579182015b8281111561105757825182559160200191906001019061103c565b5b5090506110659190611069565b5090565b5b8082111561108257600081600090555060010161106a565b509056fe608060405234801561001057600080fd5b506040516104ae3803806104ae8339818101604052606081101561003357600080fd5b8101908080519060200190929190805190602001909291908051906020019092919050505082600360006101000a81548173ffffffffffffffffffffffffffffffffffffffff021916908373ffffffffffffffffffffffffffffffffffffffff16021790555081600081905550806002819055505050506103f5806100b96000396000f3fe6080604052600436106100385760003560e01c80632986c0e51461032c5780633c8da5881461035757806383d12eef146103825761031d565b3661031d573460005411156100b5576040517f08c379a00000000000000000000000000000000000000000000000000000000081526004018080602001828103825260168152602001807f4974656d206973206e6f742066756c6c7920706169640000000000000000000081525060200191505060405180910390fd5b60006001541461012d576040517f08c379a00000000000000000000000000000000000000000000000000000000081526004018080602001828103825260148152602001807f4974656d20697320616c7265616479207061696400000000000000000000000081525060200191505060405180910390fd5b346001600082825401925050819055506000600360009054906101000a900473ffffffffffffffffffffffffffffffffffffffff1673ffffffffffffffffffffffffffffffffffffffff1634600254604051602401808281526020019150506040516020818303038152906040527f800fb83f000000000000000000000000000000000000000000000000000000007bffffffffffffffffffffffffffffffffffffffffffffffffffffffff19166020820180517bffffffffffffffffffffffffffffffffffffffffffffffffffffffff83818316178352505050506040518082805190602001908083835b6020831061023c5780518252602082019150602081019050602083039250610219565b6001836020036101000a03801982511681845116808217855250505050505090500191505060006040518083038185875af1925050503d806000811461029e576040519150601f19603f3d011682016040523d82523d6000602084013e6102a3565b606091505b505090508061031a576040517f08c379a00000000000000000000000000000000000000000000000000000000081526004018080602001828103825260148152602001807f5061796d656e7420646964206e6f7420776f726b00000000000000000000000081525060200191505060405180910390fd5b50005b34801561032957600080fd5b50005b34801561033857600080fd5b506103416103ad565b6040518082815260200191505060405180910390f35b34801561036357600080fd5b5061036c6103b3565b6040518082815260200191505060405180910390f35b34801561038e57600080fd5b506103976103b9565b6040518082815260200191505060405180910390f35b60025481565b60005481565b6001548156fea264697066735822122024716aa7f7553b8905abddf61fa4b9715f39437c86bddd0bbb11157695187f4d64736f6c634300060c00334f776e61626c653a206e6577206f776e657220697320746865207a65726f20616464726573734f6e6c79206974656d732061726520616c6c6f77656420746f20757064617465207468656d73656c7665734974656d206973206675727468657220696e2074686520737570706c7920636861696ea2646970667358221220286d196b84de2caf2436433c196bd2247a3e9f759cb7c59889cb1d41702b997464736f6c634300060c0033",
  "immutableReferences": {},
  "source": "// SPDX-License-Identifier: MIT\npragma solidity ^0.6.0;\n\nimport \"@openzeppelin/contracts/access/Ownable.sol\";\nimport \"./Item.sol\";\n\ncontract ItemManager is Ownable {\n\n  enum SupplyChainStatuses {Created, Paid, Delivered}\n\n  struct SupplyChainItem {\n    Item item;\n    string identifier;\n    SupplyChainStatuses status;\n  }\n\n  mapping(uint => SupplyChainItem) public items;\n  uint index;\n\n  event SupplyChainEvent(uint _index, uint _status, address _address);\n\n  function createItem(string memory _identifier, uint _priceInWei) public onlyOwner {\n    Item item = new Item(this, _priceInWei, index);\n    items[index].item = item;\n    items[index].identifier = _identifier;\n    items[index].status = SupplyChainStatuses.Created;\n    emit SupplyChainEvent(index, uint(items[index].status), address(item));\n    index++;\n  }\n\n  function triggerPayment(uint _index) public payable {\n    Item item = items[_index].item;\n    require(address(item) == msg.sender, \"Only items are allowed to update themselves\");\n    require(item.priceInWei() <= msg.value, \"Item is not fully paid\");\n    require(items[_index].status == SupplyChainStatuses.Created, \"Item is further in the supply chain\");\n    items[_index].status = SupplyChainStatuses.Paid;\n    emit SupplyChainEvent(_index, uint(items[_index].status), address(item));\n  }\n\n  function triggerDelivery(uint _index) public onlyOwner {\n    require(items[_index].status == SupplyChainStatuses.Paid, \"Item is further in the supply chain\");\n    items[_index].status = SupplyChainStatuses.Delivered;\n    emit SupplyChainEvent(_index, uint(items[_index].status), address(items[_index].item));\n  }\n}\n",
  "sourcePath": "/Users/sebsonic2o/Desktop/Blockchain/udemy/s07-supply-chain/contracts/ItemManager.sol",
  "compiler": {
    "name": "solc",
    "version": "0.6.12+commit.27d51765.Emscripten.clang"
  },
  "schemaVersion": "3.2.5",
  "updatedAt": "2020-11-16T16:33:19.414Z",
  "networkType": "ethereum",
  "devdoc": {
    "kind": "dev",
    "methods": {
      "owner()": {
        "details": "Returns the address of the current owner."
      },
      "renounceOwnership()": {
        "details": "Leaves the contract without owner. It will not be possible to call `onlyOwner` functions anymore. Can only be called by the current owner. NOTE: Renouncing ownership will leave the contract without an owner, thereby removing any functionality that is only available to the owner."
      },
      "transferOwnership(address)": {
        "details": "Transfers ownership of the contract to a new account (`newOwner`). Can only be called by the current owner."
      }
    },
    "version": 1
  },
  "userdoc": {
    "kind": "user",
    "methods": {},
    "version": 1
  }
}