{
  "contractName": "Item",
  "abi": [
    {
      "inputs": [
        {
          "internalType": "contract ItemManager",
          "name": "_parentContract",
          "type": "address"
        },
        {
          "internalType": "uint256",
          "name": "_priceInWei",
          "type": "uint256"
        },
        {
          "internalType": "uint256",
          "name": "_index",
          "type": "uint256"
        }
      ],
      "stateMutability": "nonpayable",
      "type": "constructor"
    },
    {
      "stateMutability": "nonpayable",
      "type": "fallback"
    },
    {
      "inputs": [],
      "name": "index",
      "outputs": [
        {
          "internalType": "uint256",
          "name": "",
          "type": "uint256"
        }
      ],
      "stateMutability": "view",
      "type": "function"
    },
    {
      "inputs": [],
      "name": "paidWei",
      "outputs": [
        {
          "internalType": "uint256",
          "name": "",
          "type": "uint256"
        }
      ],
      "stateMutability": "view",
      "type": "function"
    },
    {
      "inputs": [],
      "name": "priceInWei",
      "outputs": [
        {
          "internalType": "uint256",
          "name": "",
          "type": "uint256"
        }
      ],
      "stateMutability": "view",
      "type": "function"
    },
    {
      "stateMutability": "payable",
      "type": "receive"
    }
  ],
  "bytecode": "0x608060405234801561001057600080fd5b506040516104ae3803806104ae8339818101604052606081101561003357600080fd5b8101908080519060200190929190805190602001909291908051906020019092919050505082600360006101000a81548173ffffffffffffffffffffffffffffffffffffffff021916908373ffffffffffffffffffffffffffffffffffffffff16021790555081600081905550806002819055505050506103f5806100b96000396000f3fe6080604052600436106100385760003560e01c80632986c0e51461032c5780633c8da5881461035757806383d12eef146103825761031d565b3661031d573460005411156100b5576040517f08c379a00000000000000000000000000000000000000000000000000000000081526004018080602001828103825260168152602001807f4974656d206973206e6f742066756c6c7920706169640000000000000000000081525060200191505060405180910390fd5b60006001541461012d576040517f08c379a00000000000000000000000000000000000000000000000000000000081526004018080602001828103825260148152602001807f4974656d20697320616c7265616479207061696400000000000000000000000081525060200191505060405180910390fd5b346001600082825401925050819055506000600360009054906101000a900473ffffffffffffffffffffffffffffffffffffffff1673ffffffffffffffffffffffffffffffffffffffff1634600254604051602401808281526020019150506040516020818303038152906040527f800fb83f000000000000000000000000000000000000000000000000000000007bffffffffffffffffffffffffffffffffffffffffffffffffffffffff19166020820180517bffffffffffffffffffffffffffffffffffffffffffffffffffffffff83818316178352505050506040518082805190602001908083835b6020831061023c5780518252602082019150602081019050602083039250610219565b6001836020036101000a03801982511681845116808217855250505050505090500191505060006040518083038185875af1925050503d806000811461029e576040519150601f19603f3d011682016040523d82523d6000602084013e6102a3565b606091505b505090508061031a576040517f08c379a00000000000000000000000000000000000000000000000000000000081526004018080602001828103825260148152602001807f5061796d656e7420646964206e6f7420776f726b00000000000000000000000081525060200191505060405180910390fd5b50005b34801561032957600080fd5b50005b34801561033857600080fd5b506103416103ad565b6040518082815260200191505060405180910390f35b34801561036357600080fd5b5061036c6103b3565b6040518082815260200191505060405180910390f35b34801561038e57600080fd5b506103976103b9565b6040518082815260200191505060405180910390f35b60025481565b60005481565b6001548156fea2646970667358221220508f9b15ab1e4c37287bab68985dbaa40b480dbaa29f5e65e02c3c0e5809d81464736f6c634300060c0033",
  "immutableReferences": {},
  "source": "// SPDX-License-Identifier: MIT\npragma solidity ^0.6.0;\n\nimport \"./ItemManager.sol\";\n\ncontract Item {\n  uint public priceInWei;\n  uint public paidWei;\n  uint public index;\n\n  ItemManager parentContract;\n\n  constructor(ItemManager _parentContract, uint _priceInWei, uint _index) public {\n    parentContract = _parentContract;\n    priceInWei = _priceInWei;\n    index = _index;\n  }\n\n  receive() external payable {\n    require(priceInWei <= msg.value, \"Item is not fully paid\");\n    require(paidWei == 0, \"Item is already paid\");\n    paidWei += msg.value;\n    (bool success, ) = address(parentContract).call{value: msg.value}(\n      abi.encodeWithSignature(\"triggerPayment(uint256)\", index)\n    );\n    require(success, \"Payment did not work\");\n  }\n\n  fallback() external {}\n}\n",
  "sourcePath": "/Users/sebsonic2o/Desktop/Blockchain/udemy/s07-supply-chain/contracts/Item.sol",
  "compiler": {
    "name": "solc",
    "version": "0.6.12+commit.27d51765.Emscripten.clang"
  },
  "schemaVersion": "3.2.5",
  "updatedAt": "2020-11-09T03:18:22.743Z",
  "devdoc": {
    "kind": "dev",
    "methods": {},
    "version": 1
  },
  "userdoc": {
    "kind": "user",
    "methods": {},
    "version": 1
  }
}